:100000000A128A11FC2F00308A000408840A820731
:1000100000343F3406345B344F3466346D347D3401
:0600200007347F346F3449
:100F76000630831603139F0007309C00013085005E
:100F86008601013084000A128A1103200A128A118E
:100F9600831203138600F201051CD22FD32FCF2F05
:100FA6004130F100EE30F000F00BD72FF10BD72FC8
:100FB600000083120313051CE12FE22FCF2F01300F
:100FC600F2070A307202031CE92FEA2FEB2FF20117
:100FD6007208013E84000A128A1103200A128A113D
:100FE60086000518F72FF82FF42FCF2F0A128A1133
:0A0FF600002883010A128A11BB2FA4
:00000001FF
