:100000000C9434000C9492000C9446000C9446001E
:100010000C9446000C9446000C9446000C94460048
:100020000C9446000C9446000C9446000C94460038
:100030000C9446000C9446000C9446000C94460028
:100040000C9448000C9446000C9446000C94460016
:100050000C9446000C9446000C9446000C94460008
:100060000C9446000C94460011241FBECFEFD8E03C
:10007000DEBFCDBF21E0A0E0B1E001C01D92AB30FA
:10008000B207E1F70E94B9000C9458010C940000EB
:100090001F920F920FB60F9211242F933F938F93BD
:1000A0009F93AF93BF938091070190910801A09116
:1000B0000901B0910A013091060123E0230F2D3789
:1000C00058F50196A11DB11D2093060180930701EB
:1000D00090930801A0930901B0930A018091020155
:1000E00090910301A0910401B09105010196A11D19
:1000F000B11D8093020190930301A0930401B0937A
:100100000501BF91AF919F918F913F912F910F90DA
:100110000FBE0F901F90189526E8230F0296A11D81
:10012000B11DD2CF1F920F920FB60F9211242F93B1
:100130003F938F939F9339B129B1809100019091A2
:10014000010132FB332730F923FB222720F9321734
:1001500071F0019690930101809300019F918F911E
:100160003F912F910F900FBE0F901F901895019700
:10017000F1CF789484B5826084BD84B5816084BDFC
:1001800085B5826085BD85B5816085BD80916E0035
:10019000816080936E001092810080918100826066
:1001A00080938100809181008160809381008091A3
:1001B00080008160809380008091B1008460809392
:1001C000B1008091B00081608093B00080917A008E
:1001D000846080937A0080917A00826080937A00B4
:1001E00080917A00816080937A0080917A008068A3
:1001F00080937A001092C1008AB1837E8AB98BB154
:100200008C618BB984B1836084B9579A85B18C7F36
:1002100085B95F98809169008160809369008091C1
:1002200069008D7F80936900E89A789480918000BE
:10023000816080938000809180008068809380003E
:10024000809181008860809381008091810081602D
:10025000809381001092890010928800C0E0D0E065
:100260002091000130910101C90137FF04C08827A6
:100270009927821B930B8F3F910519F014F08FEF94
:1002800090E0121613065CF4289A5F989093890008
:1002900080938800209721F30E940000E1CF2898E6
:1002A000232B11F05F9AF2CF5F9890E080E0EECFC1
:0402B000F894FFCFF0
:00000001FF
