:020000040000FA
:100000000C9434000C9492000C9446000C9446001E
:100010000C9446000C9446000C9446000C94460048
:100020000C9446000C9446000C9446000C94460038
:100030000C9446000C9446000C9446000C94460028
:100040000C9448000C9446000C9446000C94460016
:100050000C9446000C9446000C9446000C94460008
:100060000C9446000C94460011241FBECFEFD8E03C
:10007000DEBFCDBF21E0A0E0B1E001C01D92AB30FA
:10008000B207E1F70E94B9000C9458010C940000EB
:100090001F920F920FB60F9211242F933F938F93BD
:1000A0009F93AF93BF938091070190910801A09116
:1000B0000901B0910A013091060123E0230F2D3789
:1000C00058F50196A11DB11D2093060180930701EB
:1000D00090930801A0930901B0930A018091020155
:1000E00090910301A0910401B09105010196A11D19
:1000F000B11D8093020190930301A0930401B0937A
:100100000501BF91AF919F918F913F912F910F90DA
:100110000FBE0F901F90189526E8230F0296A11D81
:10012000B11DD2CF1F920F920FB60F9211242F93B1
:100130003F938F939F9339B129B1809100019091A2
:10014000010132FB332730F923FB222720F9321734
:1001500071F0019690930101809300019F918F911E
:100160003F912F910F900FBE0F901F901895019700
:10017000F1CF789484B5826084BD84B5816084BDFC
:1001800085B5826085BD85B5816085BD80916E0035
:10019000816080936E001092810080918100826066
:1001A00080938100809181008160809381008091A3
:1001B00080008160809380008091B1008460809392
:1001C000B1008091B00081608093B00080917A008E
:1001D000846080937A0080917A00826080937A00B4
:1001E00080917A00816080937A0080917A008068A3
:1001F00080937A001092C1008AB1837E8AB98BB154
:100200008C618BB984B1836084B9579A85B18C7F36
:1002100085B95F98809169008160809369008091C1
:1002200069008D7F80936900E89A789480918000BE
:10023000816080938000809180008068809380003E
:10024000809181008860809381008091810081602D
:10025000809381001092890010928800C0E0D0E065
:100260002091000130910101C90137FF04C08827A6
:100270009927821B930B8F3F910519F014F08FEF94
:1002800090E0121613065CF4289A5F989093890008
:1002900080938800209721F30E940000E1CF2898E6
:1002A000232B11F05F9AF2CF5F9890E080E0EECFC1
:0402B000F894FFCFF0
:107E0000112484B714BE81FFF0D085E080938100F7
:107E100082E08093C00088E18093C10086E0809377
:107E2000C20080E18093C4008EE0C9D0259A86E02C
:107E300020E33CEF91E0309385002093840096BBD3
:107E4000B09BFECF1D9AA8958150A9F7CC24DD24C4
:107E500088248394B5E0AB2EA1E19A2EF3E0BF2EE7
:107E6000A2D0813461F49FD0082FAFD0023811F036
:107E7000013811F484E001C083E08DD089C08234E0
:107E800011F484E103C0853419F485E0A6D080C0E4
:107E9000853579F488D0E82EFF2485D0082F10E0AE
:107EA000102F00270E291F29000F111F8ED06801E7
:107EB0006FC0863521F484E090D080E0DECF843638
:107EC00009F040C070D06FD0082F6DD080E0C81688
:107ED00080E7D80618F4F601B7BEE895C0E0D1E017
:107EE00062D089930C17E1F7F0E0CF16F0E7DF06D8
:107EF00018F0F601B7BEE89568D007B600FCFDCFD4
:107F0000A601A0E0B1E02C9130E011968C91119780
:107F100090E0982F8827822B932B1296FA010C0160
:107F200087BEE89511244E5F5F4FF1E0A038BF0790
:107F300051F7F601A7BEE89507B600FCFDCF97BE46
:107F4000E89526C08437B1F42ED02DD0F82E2BD052
:107F50003CD0F601EF2C8F010F5F1F4F84911BD097
:107F6000EA94F801C1F70894C11CD11CFA94CF0C13
:107F7000D11C0EC0853739F428D08EE10CD085E9AC
:107F80000AD08FE07ACF813511F488E018D01DD067
:107F900080E101D065CF982F8091C00085FFFCCF94
:107FA0009093C60008958091C00087FFFCCF809118
:107FB000C00084FD01C0A8958091C6000895E0E648
:107FC000F0E098E1908380830895EDDF803219F02E
:107FD00088E0F5DFFFCF84E1DECF1F93182FE3DFCA
:107FE0001150E9F7F2DF1F91089580E0E8DFEE27F6
:047FF000FF270994CA
:027FFE00040479
:00000001FF
